{
  "contractName": "controlSwitch",
  "abi": [
    {
      "inputs": [],
      "name": "subjects",
      "outputs": [
        {
          "internalType": "string",
          "name": "subject",
          "type": "string"
        },
        {
          "internalType": "enum controlSwitch.deadline",
          "name": "day",
          "type": "uint8"
        },
        {
          "internalType": "enum controlSwitch.newdeadline",
          "name": "newday",
          "type": "uint8"
        }
      ],
      "stateMutability": "view",
      "type": "function",
      "constant": true
    },
    {
      "inputs": [
        {
          "internalType": "string",
          "name": "_subject",
          "type": "string"
        },
        {
          "internalType": "enum controlSwitch.deadline",
          "name": "_default",
          "type": "uint8"
        },
        {
          "internalType": "enum controlSwitch.newdeadline",
          "name": "_newdeadline",
          "type": "uint8"
        }
      ],
      "name": "changedeadline",
      "outputs": [
        {
          "internalType": "string",
          "name": "",
          "type": "string"
        },
        {
          "internalType": "enum controlSwitch.deadline",
          "name": "",
          "type": "uint8"
        },
        {
          "internalType": "enum controlSwitch.newdeadline",
          "name": "",
          "type": "uint8"
        }
      ],
      "stateMutability": "nonpayable",
      "type": "function"
    }
  ],
  "bytecode": "0x608060405234801561000f575f80fd5b506108e08061001d5f395ff3fe608060405234801561000f575f80fd5b5060043610610034575f3560e01c8063b731a04c14610038578063e33321981461006a575b5f80fd5b610052600480360381019061004d91906103fd565b61008a565b6040516100619392919061059c565b60405180910390f35b6100726101b5565b6040516100819392919061059c565b60405180910390f35b60605f80855f8001908161009e91906107db565b50845f6001015f6101000a81548160ff021916908360028111156100c5576100c46104e3565b5b0217905550835f60010160016101000a81548160ff021916908360028111156100f1576100f06104e3565b5b02179055505f80015f6001015f9054906101000a900460ff165f60010160019054906101000a900460ff1682805461012890610605565b80601f016020809104026020016040519081016040528092919081815260200182805461015490610605565b801561019f5780601f106101765761010080835404028352916020019161019f565b820191905f5260205f20905b81548152906001019060200180831161018257829003601f168201915b5050505050925092509250925093509350939050565b5f805f0180546101c490610605565b80601f01602080910402602001604051908101604052809291908181526020018280546101f090610605565b801561023b5780601f106102125761010080835404028352916020019161023b565b820191905f5260205f20905b81548152906001019060200180831161021e57829003601f168201915b505050505090806001015f9054906101000a900460ff16908060010160019054906101000a900460ff16905083565b5f604051905090565b5f80fd5b5f80fd5b5f80fd5b5f80fd5b5f601f19601f8301169050919050565b7f4e487b71000000000000000000000000000000000000000000000000000000005f52604160045260245ffd5b6102c982610283565b810181811067ffffffffffffffff821117156102e8576102e7610293565b5b80604052505050565b5f6102fa61026a565b905061030682826102c0565b919050565b5f67ffffffffffffffff82111561032557610324610293565b5b61032e82610283565b9050602081019050919050565b828183375f83830152505050565b5f61035b6103568461030b565b6102f1565b9050828152602081018484840111156103775761037661027f565b5b61038284828561033b565b509392505050565b5f82601f83011261039e5761039d61027b565b5b81356103ae848260208601610349565b91505092915050565b600381106103c3575f80fd5b50565b5f813590506103d4816103b7565b92915050565b600381106103e6575f80fd5b50565b5f813590506103f7816103da565b92915050565b5f805f6060848603121561041457610413610273565b5b5f84013567ffffffffffffffff81111561043157610430610277565b5b61043d8682870161038a565b935050602061044e868287016103c6565b925050604061045f868287016103e9565b9150509250925092565b5f81519050919050565b5f82825260208201905092915050565b5f5b838110156104a0578082015181840152602081019050610485565b5f8484015250505050565b5f6104b582610469565b6104bf8185610473565b93506104cf818560208601610483565b6104d881610283565b840191505092915050565b7f4e487b71000000000000000000000000000000000000000000000000000000005f52602160045260245ffd5b60038110610521576105206104e3565b5b50565b5f81905061053182610510565b919050565b5f61054082610524565b9050919050565b61055081610536565b82525050565b60038110610567576105666104e3565b5b50565b5f81905061057782610556565b919050565b5f6105868261056a565b9050919050565b6105968161057c565b82525050565b5f6060820190508181035f8301526105b481866104ab565b90506105c36020830185610547565b6105d0604083018461058d565b949350505050565b7f4e487b71000000000000000000000000000000000000000000000000000000005f52602260045260245ffd5b5f600282049050600182168061061c57607f821691505b60208210810361062f5761062e6105d8565b5b50919050565b5f819050815f5260205f209050919050565b5f6020601f8301049050919050565b5f82821b905092915050565b5f600883026106917fffffffffffffffffffffffffffffffffffffffffffffffffffffffffffffffff82610656565b61069b8683610656565b95508019841693508086168417925050509392505050565b5f819050919050565b5f819050919050565b5f6106df6106da6106d5846106b3565b6106bc565b6106b3565b9050919050565b5f819050919050565b6106f8836106c5565b61070c610704826106e6565b848454610662565b825550505050565b5f90565b610720610714565b61072b8184846106ef565b505050565b5b8181101561074e576107435f82610718565b600181019050610731565b5050565b601f8211156107935761076481610635565b61076d84610647565b8101602085101561077c578190505b61079061078885610647565b830182610730565b50505b505050565b5f82821c905092915050565b5f6107b35f1984600802610798565b1980831691505092915050565b5f6107cb83836107a4565b9150826002028217905092915050565b6107e482610469565b67ffffffffffffffff8111156107fd576107fc610293565b5b6108078254610605565b610812828285610752565b5f60209050601f831160018114610843575f8415610831578287015190505b61083b85826107c0565b8655506108a2565b601f19841661085186610635565b5f5b8281101561087857848901518255600182019150602085019450602081019050610853565b868310156108955784890151610891601f8916826107a4565b8355505b6001600288020188555050505b50505050505056fea26469706673582212207ba1c26f181563e2bdfadd6836200456930a3dc31c06e8fda7f60052d2304af864736f6c63430008140033",
  "immutableReferences": {},
  "source": "pragma solidity >= 0.4.16 < 0.9.0;\r\n\r\ncontract controlSwitch{\r\n    enum deadline{tuesday,wednesday,friday}\r\n    enum newdeadline{wednesday,monday,saturday}\r\n    struct sub{string subject;deadline day; newdeadline newday;}\r\n\r\n    sub public subjects;\r\n    string subject;\r\n\r\n    function changedeadline(string memory _subject,deadline _default,newdeadline _newdeadline) \r\n    public returns (string memory,deadline,newdeadline){\r\n        \r\n        subjects.subject =_subject;\r\n        subjects.day= _default;\r\n        subjects.newday= _newdeadline;\r\n\r\n        return (subjects.subject,subjects.day,subjects.newday);\r\n        \r\n    }}",
  "sourcePath": "D:\\BlockChain\\contracts\\New folder\\Assignment3.sol",
  "compiler": {
    "name": "solc",
    "version": "0.8.20+commit.a1b79de6.Emscripten.clang"
  },
  "schemaVersion": "3.4.14",
  "updatedAt": "2023-07-27T04:40:02.061Z",
  "networkType": "ethereum",
  "devdoc": {
    "kind": "dev",
    "methods": {},
    "version": 1
  },
  "userdoc": {
    "kind": "user",
    "methods": {},
    "version": 1
  }
}