{
  "contractName": "OddEvenChecker",
  "abi": [
    {
      "inputs": [
        {
          "internalType": "uint256",
          "name": "number",
          "type": "uint256"
        }
      ],
      "name": "checkOddEven",
      "outputs": [
        {
          "internalType": "string",
          "name": "",
          "type": "string"
        }
      ],
      "stateMutability": "pure",
      "type": "function"
    }
  ],
  "bytecode": "0x608060405234801561000f575f80fd5b5061028c8061001d5f395ff3fe608060405234801561000f575f80fd5b5060043610610029575f3560e01c80635d753f841461002d575b5f80fd5b61004760048036038101906100429190610124565b61005d565b60405161005491906101d9565b60405180910390f35b60605f60028361006d9190610226565b036100af576040518060400160405280600481526020017f4576656e0000000000000000000000000000000000000000000000000000000081525090506100e8565b6040518060400160405280600381526020017f4f6464000000000000000000000000000000000000000000000000000000000081525090505b919050565b5f80fd5b5f819050919050565b610103816100f1565b811461010d575f80fd5b50565b5f8135905061011e816100fa565b92915050565b5f60208284031215610139576101386100ed565b5b5f61014684828501610110565b91505092915050565b5f81519050919050565b5f82825260208201905092915050565b5f5b8381101561018657808201518184015260208101905061016b565b5f8484015250505050565b5f601f19601f8301169050919050565b5f6101ab8261014f565b6101b58185610159565b93506101c5818560208601610169565b6101ce81610191565b840191505092915050565b5f6020820190508181035f8301526101f181846101a1565b905092915050565b7f4e487b71000000000000000000000000000000000000000000000000000000005f52601260045260245ffd5b5f610230826100f1565b915061023b836100f1565b92508261024b5761024a6101f9565b5b82820690509291505056fea264697066735822122084d60bd5d2fba350803cb796fd76d66b443265562147df274e7267f40a4355ef64736f6c63430008140033",
  "immutableReferences": {},
  "source": "pragma solidity >= 0.4.16 < 0.9.0;\r\ncontract OddEvenChecker {\r\n    function checkOddEven(uint256 number) public pure returns (string memory) {\r\n        if (number % 2 == 0) {\r\n            return \"Even\";\r\n        } else {\r\n            return \"Odd\";\r\n        }\r\n    }\r\n}\r\n",
  "sourcePath": "D:\\BlockChain\\contracts\\OddEven.sol",
  "compiler": {
    "name": "solc",
    "version": "0.8.20+commit.a1b79de6.Emscripten.clang"
  },
  "schemaVersion": "3.4.14",
  "updatedAt": "2023-07-27T04:22:09.611Z",
  "devdoc": {
    "kind": "dev",
    "methods": {},
    "version": 1
  },
  "userdoc": {
    "kind": "user",
    "methods": {},
    "version": 1
  }
}