{
  "contractName": "SumCalculator",
  "abi": [
    {
      "inputs": [
        {
          "internalType": "uint256",
          "name": "n",
          "type": "uint256"
        }
      ],
      "name": "calculateSum",
      "outputs": [
        {
          "internalType": "uint256",
          "name": "",
          "type": "uint256"
        }
      ],
      "stateMutability": "pure",
      "type": "function",
      "constant": true
    }
  ],
  "bytecode": "0x608060405234801561000f575f80fd5b506102018061001d5f395ff3fe608060405234801561000f575f80fd5b5060043610610029575f3560e01c80635f8932ff1461002d575b5f80fd5b610047600480360381019061004291906100d1565b61005d565b604051610054919061010b565b60405180910390f35b5f805f90505f600190505b83811161009057808261007b9190610151565b9150808061008890610184565b915050610068565b5080915050919050565b5f80fd5b5f819050919050565b6100b08161009e565b81146100ba575f80fd5b50565b5f813590506100cb816100a7565b92915050565b5f602082840312156100e6576100e561009a565b5b5f6100f3848285016100bd565b91505092915050565b6101058161009e565b82525050565b5f60208201905061011e5f8301846100fc565b92915050565b7f4e487b71000000000000000000000000000000000000000000000000000000005f52601160045260245ffd5b5f61015b8261009e565b91506101668361009e565b925082820190508082111561017e5761017d610124565b5b92915050565b5f61018e8261009e565b91507fffffffffffffffffffffffffffffffffffffffffffffffffffffffffffffffff82036101c0576101bf610124565b5b60018201905091905056fea264697066735822122058e27fa75321a27a28f317374492b92603ea16e386acc32de7d025f45a35bd9264736f6c63430008140033",
  "immutableReferences": {},
  "source": "pragma solidity >= 0.4.16 < 0.9.0;\r\n\r\ncontract SumCalculator {\r\n    function calculateSum(uint256 n) public pure returns (uint256) {\r\n        uint256 sum = 0;\r\n        \r\n        for (uint256 i = 1; i <= n; i++) {\r\n            sum += i;\r\n        }\r\n        \r\n        return sum;\r\n    }\r\n}\r\n",
  "sourcePath": "D:\\BlockChain\\contracts\\sumofn.sol",
  "compiler": {
    "name": "solc",
    "version": "0.8.20+commit.a1b79de6.Emscripten.clang"
  },
  "schemaVersion": "3.4.14",
  "updatedAt": "2023-07-27T04:22:11.233Z",
  "networkType": "ethereum",
  "devdoc": {
    "kind": "dev",
    "methods": {},
    "version": 1
  },
  "userdoc": {
    "kind": "user",
    "methods": {},
    "version": 1
  }
}