{
  "contractName": "Test",
  "abi": [
    {
      "inputs": [],
      "name": "div",
      "outputs": [
        {
          "internalType": "uint256",
          "name": "",
          "type": "uint256"
        }
      ],
      "stateMutability": "view",
      "type": "function"
    },
    {
      "inputs": [],
      "name": "mod",
      "outputs": [
        {
          "internalType": "uint256",
          "name": "",
          "type": "uint256"
        }
      ],
      "stateMutability": "view",
      "type": "function"
    },
    {
      "inputs": [],
      "name": "mul",
      "outputs": [
        {
          "internalType": "uint256",
          "name": "",
          "type": "uint256"
        }
      ],
      "stateMutability": "view",
      "type": "function"
    },
    {
      "inputs": [],
      "name": "sub",
      "outputs": [
        {
          "internalType": "uint256",
          "name": "",
          "type": "uint256"
        }
      ],
      "stateMutability": "view",
      "type": "function"
    },
    {
      "inputs": [],
      "name": "sum",
      "outputs": [
        {
          "internalType": "uint256",
          "name": "",
          "type": "uint256"
        }
      ],
      "stateMutability": "view",
      "type": "function"
    },
    {
      "inputs": [],
      "name": "var1",
      "outputs": [
        {
          "internalType": "uint256",
          "name": "",
          "type": "uint256"
        }
      ],
      "stateMutability": "view",
      "type": "function"
    },
    {
      "inputs": [],
      "name": "var2",
      "outputs": [
        {
          "internalType": "uint256",
          "name": "",
          "type": "uint256"
        }
      ],
      "stateMutability": "view",
      "type": "function"
    },
    {
      "inputs": [
        {
          "internalType": "uint256",
          "name": "x",
          "type": "uint256"
        },
        {
          "internalType": "uint256",
          "name": "y",
          "type": "uint256"
        }
      ],
      "name": "set",
      "outputs": [],
      "stateMutability": "nonpayable",
      "type": "function"
    },
    {
      "inputs": [],
      "name": "get",
      "outputs": [
        {
          "internalType": "uint256",
          "name": "",
          "type": "uint256"
        }
      ],
      "stateMutability": "view",
      "type": "function"
    }
  ],
  "bytecode": "0x608060405234801561000f575f80fd5b506104818061001d5f395ff3fe608060405234801561000f575f80fd5b5060043610610091575f3560e01c806367e919b61161006457806367e919b61461010b5780636d4ce63c14610129578063853255cc14610147578063c54124be14610165578063f9fa48c31461018357610091565b80631ab06ee5146100955780632986e054146100b1578063507aff57146100cf57806358931c46146100ed575b5f80fd5b6100af60048036038101906100aa9190610284565b6101a1565b005b6100b961021b565b6040516100c691906102d1565b60405180910390f35b6100d7610221565b6040516100e491906102d1565b60405180910390f35b6100f5610227565b60405161010291906102d1565b60405180910390f35b61011361022d565b60405161012091906102d1565b60405180910390f35b610131610232565b60405161013e91906102d1565b60405180910390f35b61014f61023b565b60405161015c91906102d1565b60405180910390f35b61016d610241565b60405161017a91906102d1565b60405180910390f35b61018b610247565b60405161019891906102d1565b60405180910390f35b815f81905550806001819055506001545f546101bd9190610317565b6002819055506001545f546101d2919061034a565b6003819055506001545f546101e7919061037d565b6004819055506001545f546101fc91906103eb565b6005819055506001545f54610211919061041b565b6006819055505050565b60065481565b60015481565b60045481565b5f5481565b5f600254905090565b60025481565b60035481565b60055481565b5f80fd5b5f819050919050565b61026381610251565b811461026d575f80fd5b50565b5f8135905061027e8161025a565b92915050565b5f806040838503121561029a5761029961024d565b5b5f6102a785828601610270565b92505060206102b885828601610270565b9150509250929050565b6102cb81610251565b82525050565b5f6020820190506102e45f8301846102c2565b92915050565b7f4e487b71000000000000000000000000000000000000000000000000000000005f52601160045260245ffd5b5f61032182610251565b915061032c83610251565b9250828201905080821115610344576103436102ea565b5b92915050565b5f61035482610251565b915061035f83610251565b9250828203905081811115610377576103766102ea565b5b92915050565b5f61038782610251565b915061039283610251565b92508282026103a081610251565b915082820484148315176103b7576103b66102ea565b5b5092915050565b7f4e487b71000000000000000000000000000000000000000000000000000000005f52601260045260245ffd5b5f6103f582610251565b915061040083610251565b9250826104105761040f6103be565b5b828204905092915050565b5f61042582610251565b915061043083610251565b9250826104405761043f6103be565b5b82820690509291505056fea264697066735822122024e3fc39770da1258b11ec085e98049df7dc4ea0b6dc18bc18efa26d41af774f64736f6c63430008140033",
  "immutableReferences": {},
  "source": "\r\npragma solidity >= 0.4.16 < 0.9.0;\r\n\r\ncontract Test\r\n{\r\n\t\r\n\t// Declaring state variables\r\n\tuint public var1;\r\n\tuint public var2;\r\n\tuint public sum;\r\n    uint public sub;\r\n    uint public mul;\r\n    uint public div;\r\n    uint public mod;\r\n\r\n\t// Defining public function\r\n\t// that sets the value of\r\n\t// the state variable\r\n\tfunction set(uint x, uint y) public\r\n\t{\r\n\t\tvar1 = x;\r\n\t\tvar2 = y;\r\n\t\tsum=var1+var2;\r\n        sub=var1-var2;\r\n        mul=var1*var2;\r\n        div=var1/var2;\r\n        mod=var1%var2;\r\n\r\n\t}\r\n\t\r\n\t// Defining function to\r\n\t// print the sum of\r\n\t// state variables\r\n\tfunction get() public view returns (uint) {\r\n\t\treturn sum;\r\n\t}\r\n}\r\n",
  "sourcePath": "D:\\BlockChain\\contracts\\sum.sol",
  "compiler": {
    "name": "solc",
    "version": "0.8.20+commit.a1b79de6.Emscripten.clang"
  },
  "schemaVersion": "3.4.14",
  "updatedAt": "2023-07-27T04:22:09.629Z",
  "devdoc": {
    "kind": "dev",
    "methods": {},
    "version": 1
  },
  "userdoc": {
    "kind": "user",
    "methods": {},
    "version": 1
  }
}